{
  "_format": "hh-sol-artifact-1",
  "contractName": "NFTMarketplace",
  "sourceName": "contracts/NFTMarketplace.sol",
  "abi": [
    {
      "inputs": [],
      "stateMutability": "nonpayable",
      "type": "constructor"
    },
    {
      "anonymous": false,
      "inputs": [
        {
          "indexed": true,
          "internalType": "address",
          "name": "owner",
          "type": "address"
        },
        {
          "indexed": true,
          "internalType": "address",
          "name": "approved",
          "type": "address"
        },
        {
          "indexed": true,
          "internalType": "uint256",
          "name": "tokenId",
          "type": "uint256"
        }
      ],
      "name": "Approval",
      "type": "event"
    },
    {
      "anonymous": false,
      "inputs": [
        {
          "indexed": true,
          "internalType": "address",
          "name": "owner",
          "type": "address"
        },
        {
          "indexed": true,
          "internalType": "address",
          "name": "operator",
          "type": "address"
        },
        {
          "indexed": false,
          "internalType": "bool",
          "name": "approved",
          "type": "bool"
        }
      ],
      "name": "ApprovalForAll",
      "type": "event"
    },
    {
      "anonymous": false,
      "inputs": [
        {
          "indexed": false,
          "internalType": "uint256",
          "name": "_fromTokenId",
          "type": "uint256"
        },
        {
          "indexed": false,
          "internalType": "uint256",
          "name": "_toTokenId",
          "type": "uint256"
        }
      ],
      "name": "BatchMetadataUpdate",
      "type": "event"
    },
    {
      "anonymous": false,
      "inputs": [
        {
          "indexed": false,
          "internalType": "uint256",
          "name": "_tokenId",
          "type": "uint256"
        }
      ],
      "name": "MetadataUpdate",
      "type": "event"
    },
    {
      "anonymous": false,
      "inputs": [
        {
          "indexed": true,
          "internalType": "uint256",
          "name": "tokenId",
          "type": "uint256"
        },
        {
          "indexed": false,
          "internalType": "address",
          "name": "owner",
          "type": "address"
        },
        {
          "indexed": false,
          "internalType": "address",
          "name": "seller",
          "type": "address"
        },
        {
          "indexed": false,
          "internalType": "uint256",
          "name": "price",
          "type": "uint256"
        },
        {
          "indexed": false,
          "internalType": "bool",
          "name": "currentlyListed",
          "type": "bool"
        }
      ],
      "name": "TokenListedSuccess",
      "type": "event"
    },
    {
      "anonymous": false,
      "inputs": [
        {
          "indexed": true,
          "internalType": "address",
          "name": "from",
          "type": "address"
        },
        {
          "indexed": true,
          "internalType": "address",
          "name": "to",
          "type": "address"
        },
        {
          "indexed": true,
          "internalType": "uint256",
          "name": "tokenId",
          "type": "uint256"
        }
      ],
      "name": "Transfer",
      "type": "event"
    },
    {
      "inputs": [
        {
          "internalType": "address",
          "name": "to",
          "type": "address"
        },
        {
          "internalType": "uint256",
          "name": "tokenId",
          "type": "uint256"
        }
      ],
      "name": "approve",
      "outputs": [],
      "stateMutability": "nonpayable",
      "type": "function"
    },
    {
      "inputs": [
        {
          "internalType": "address",
          "name": "owner",
          "type": "address"
        }
      ],
      "name": "balanceOf",
      "outputs": [
        {
          "internalType": "uint256",
          "name": "",
          "type": "uint256"
        }
      ],
      "stateMutability": "view",
      "type": "function"
    },
    {
      "inputs": [
        {
          "internalType": "string",
          "name": "tokenURI",
          "type": "string"
        },
        {
          "internalType": "uint256",
          "name": "price",
          "type": "uint256"
        }
      ],
      "name": "createToken",
      "outputs": [
        {
          "internalType": "uint256",
          "name": "",
          "type": "uint256"
        }
      ],
      "stateMutability": "payable",
      "type": "function"
    },
    {
      "inputs": [
        {
          "internalType": "uint256",
          "name": "tokenId",
          "type": "uint256"
        }
      ],
      "name": "executeSale",
      "outputs": [],
      "stateMutability": "payable",
      "type": "function"
    },
    {
      "inputs": [],
      "name": "fetchItemsListed",
      "outputs": [
        {
          "components": [
            {
              "internalType": "uint256",
              "name": "tokenId",
              "type": "uint256"
            },
            {
              "internalType": "address payable",
              "name": "owner",
              "type": "address"
            },
            {
              "internalType": "address payable",
              "name": "seller",
              "type": "address"
            },
            {
              "internalType": "uint256",
              "name": "price",
              "type": "uint256"
            },
            {
              "internalType": "bool",
              "name": "currentlyListed",
              "type": "bool"
            }
          ],
          "internalType": "struct NFTMarketplace.ListedToken[]",
          "name": "",
          "type": "tuple[]"
        }
      ],
      "stateMutability": "view",
      "type": "function"
    },
    {
      "inputs": [],
      "name": "fetchMarketItems",
      "outputs": [
        {
          "components": [
            {
              "internalType": "uint256",
              "name": "tokenId",
              "type": "uint256"
            },
            {
              "internalType": "address payable",
              "name": "owner",
              "type": "address"
            },
            {
              "internalType": "address payable",
              "name": "seller",
              "type": "address"
            },
            {
              "internalType": "uint256",
              "name": "price",
              "type": "uint256"
            },
            {
              "internalType": "bool",
              "name": "currentlyListed",
              "type": "bool"
            }
          ],
          "internalType": "struct NFTMarketplace.ListedToken[]",
          "name": "",
          "type": "tuple[]"
        }
      ],
      "stateMutability": "view",
      "type": "function"
    },
    {
      "inputs": [],
      "name": "getAllNFTs",
      "outputs": [
        {
          "components": [
            {
              "internalType": "uint256",
              "name": "tokenId",
              "type": "uint256"
            },
            {
              "internalType": "address payable",
              "name": "owner",
              "type": "address"
            },
            {
              "internalType": "address payable",
              "name": "seller",
              "type": "address"
            },
            {
              "internalType": "uint256",
              "name": "price",
              "type": "uint256"
            },
            {
              "internalType": "bool",
              "name": "currentlyListed",
              "type": "bool"
            }
          ],
          "internalType": "struct NFTMarketplace.ListedToken[]",
          "name": "",
          "type": "tuple[]"
        }
      ],
      "stateMutability": "view",
      "type": "function"
    },
    {
      "inputs": [
        {
          "internalType": "uint256",
          "name": "tokenId",
          "type": "uint256"
        }
      ],
      "name": "getApproved",
      "outputs": [
        {
          "internalType": "address",
          "name": "",
          "type": "address"
        }
      ],
      "stateMutability": "view",
      "type": "function"
    },
    {
      "inputs": [],
      "name": "getCurrentToken",
      "outputs": [
        {
          "internalType": "uint256",
          "name": "",
          "type": "uint256"
        }
      ],
      "stateMutability": "view",
      "type": "function"
    },
    {
      "inputs": [],
      "name": "getLatestIdToListedToken",
      "outputs": [
        {
          "components": [
            {
              "internalType": "uint256",
              "name": "tokenId",
              "type": "uint256"
            },
            {
              "internalType": "address payable",
              "name": "owner",
              "type": "address"
            },
            {
              "internalType": "address payable",
              "name": "seller",
              "type": "address"
            },
            {
              "internalType": "uint256",
              "name": "price",
              "type": "uint256"
            },
            {
              "internalType": "bool",
              "name": "currentlyListed",
              "type": "bool"
            }
          ],
          "internalType": "struct NFTMarketplace.ListedToken",
          "name": "",
          "type": "tuple"
        }
      ],
      "stateMutability": "view",
      "type": "function"
    },
    {
      "inputs": [],
      "name": "getListPrice",
      "outputs": [
        {
          "internalType": "uint256",
          "name": "",
          "type": "uint256"
        }
      ],
      "stateMutability": "view",
      "type": "function"
    },
    {
      "inputs": [
        {
          "internalType": "uint256",
          "name": "tokenId",
          "type": "uint256"
        }
      ],
      "name": "getListedTokenForId",
      "outputs": [
        {
          "components": [
            {
              "internalType": "uint256",
              "name": "tokenId",
              "type": "uint256"
            },
            {
              "internalType": "address payable",
              "name": "owner",
              "type": "address"
            },
            {
              "internalType": "address payable",
              "name": "seller",
              "type": "address"
            },
            {
              "internalType": "uint256",
              "name": "price",
              "type": "uint256"
            },
            {
              "internalType": "bool",
              "name": "currentlyListed",
              "type": "bool"
            }
          ],
          "internalType": "struct NFTMarketplace.ListedToken",
          "name": "",
          "type": "tuple"
        }
      ],
      "stateMutability": "view",
      "type": "function"
    },
    {
      "inputs": [],
      "name": "getMyNFTs",
      "outputs": [
        {
          "components": [
            {
              "internalType": "uint256",
              "name": "tokenId",
              "type": "uint256"
            },
            {
              "internalType": "address payable",
              "name": "owner",
              "type": "address"
            },
            {
              "internalType": "address payable",
              "name": "seller",
              "type": "address"
            },
            {
              "internalType": "uint256",
              "name": "price",
              "type": "uint256"
            },
            {
              "internalType": "bool",
              "name": "currentlyListed",
              "type": "bool"
            }
          ],
          "internalType": "struct NFTMarketplace.ListedToken[]",
          "name": "",
          "type": "tuple[]"
        }
      ],
      "stateMutability": "view",
      "type": "function"
    },
    {
      "inputs": [
        {
          "internalType": "address",
          "name": "owner",
          "type": "address"
        },
        {
          "internalType": "address",
          "name": "operator",
          "type": "address"
        }
      ],
      "name": "isApprovedForAll",
      "outputs": [
        {
          "internalType": "bool",
          "name": "",
          "type": "bool"
        }
      ],
      "stateMutability": "view",
      "type": "function"
    },
    {
      "inputs": [],
      "name": "name",
      "outputs": [
        {
          "internalType": "string",
          "name": "",
          "type": "string"
        }
      ],
      "stateMutability": "view",
      "type": "function"
    },
    {
      "inputs": [
        {
          "internalType": "uint256",
          "name": "tokenId",
          "type": "uint256"
        }
      ],
      "name": "ownerOf",
      "outputs": [
        {
          "internalType": "address",
          "name": "",
          "type": "address"
        }
      ],
      "stateMutability": "view",
      "type": "function"
    },
    {
      "inputs": [
        {
          "internalType": "uint256",
          "name": "tokenId",
          "type": "uint256"
        },
        {
          "internalType": "uint256",
          "name": "price",
          "type": "uint256"
        }
      ],
      "name": "resellToken",
      "outputs": [],
      "stateMutability": "payable",
      "type": "function"
    },
    {
      "inputs": [
        {
          "internalType": "address",
          "name": "from",
          "type": "address"
        },
        {
          "internalType": "address",
          "name": "to",
          "type": "address"
        },
        {
          "internalType": "uint256",
          "name": "tokenId",
          "type": "uint256"
        }
      ],
      "name": "safeTransferFrom",
      "outputs": [],
      "stateMutability": "nonpayable",
      "type": "function"
    },
    {
      "inputs": [
        {
          "internalType": "address",
          "name": "from",
          "type": "address"
        },
        {
          "internalType": "address",
          "name": "to",
          "type": "address"
        },
        {
          "internalType": "uint256",
          "name": "tokenId",
          "type": "uint256"
        },
        {
          "internalType": "bytes",
          "name": "data",
          "type": "bytes"
        }
      ],
      "name": "safeTransferFrom",
      "outputs": [],
      "stateMutability": "nonpayable",
      "type": "function"
    },
    {
      "inputs": [
        {
          "internalType": "address",
          "name": "operator",
          "type": "address"
        },
        {
          "internalType": "bool",
          "name": "approved",
          "type": "bool"
        }
      ],
      "name": "setApprovalForAll",
      "outputs": [],
      "stateMutability": "nonpayable",
      "type": "function"
    },
    {
      "inputs": [
        {
          "internalType": "bytes4",
          "name": "interfaceId",
          "type": "bytes4"
        }
      ],
      "name": "supportsInterface",
      "outputs": [
        {
          "internalType": "bool",
          "name": "",
          "type": "bool"
        }
      ],
      "stateMutability": "view",
      "type": "function"
    },
    {
      "inputs": [],
      "name": "symbol",
      "outputs": [
        {
          "internalType": "string",
          "name": "",
          "type": "string"
        }
      ],
      "stateMutability": "view",
      "type": "function"
    },
    {
      "inputs": [
        {
          "internalType": "uint256",
          "name": "tokenId",
          "type": "uint256"
        }
      ],
      "name": "tokenURI",
      "outputs": [
        {
          "internalType": "string",
          "name": "",
          "type": "string"
        }
      ],
      "stateMutability": "view",
      "type": "function"
    },
    {
      "inputs": [
        {
          "internalType": "address",
          "name": "from",
          "type": "address"
        },
        {
          "internalType": "address",
          "name": "to",
          "type": "address"
        },
        {
          "internalType": "uint256",
          "name": "tokenId",
          "type": "uint256"
        }
      ],
      "name": "transferFrom",
      "outputs": [],
      "stateMutability": "nonpayable",
      "type": "function"
    },
    {
      "inputs": [
        {
          "internalType": "uint256",
          "name": "_listPrice",
          "type": "uint256"
        }
      ],
      "name": "updateListPrice",
      "outputs": [],
      "stateMutability": "payable",
      "type": "function"
    }
  ],
  "bytecode": "0x6080604052655af3107a4000600a553480156200001b57600080fd5b50604080518082018252600e81526d4e46544d61726b6574706c61636560901b6020808301918252835180850190945260048452634e46544d60e01b9084015281519192916200006e916000916200009f565b508051620000849060019060208401906200009f565b5050600980546001600160a01b031916331790555062000182565b828054620000ad9062000145565b90600052602060002090601f016020900481019282620000d157600085556200011c565b82601f10620000ec57805160ff19168380011785556200011c565b828001600101855582156200011c579182015b828111156200011c578251825591602001919060010190620000ff565b506200012a9291506200012e565b5090565b5b808211156200012a57600081556001016200012f565b600181811c908216806200015a57607f821691505b602082108114156200017c57634e487b7160e01b600052602260045260246000fd5b50919050565b61271380620001926000396000f3fe6080604052600436106101665760003560e01c806372b3b620116100d1578063c322579c1161008a578063e0391b0911610064578063e0391b09146103f7578063e219fc751461040c578063e985e9c51461041f578063ef2d17461461046857600080fd5b8063c322579c146103af578063c87b56dd146103c2578063d1a88ae5146103e257600080fd5b806372b3b620146103075780638e2645901461031a57806395d89b41146103475780639b1225c41461035c578063a22cb4651461036f578063b88d4fde1461038f57600080fd5b806342842e0e1161012357806342842e0e1461025e57806345f8fa801461027e578063629cb2e4146102935780636352211e146102a857806368f1945f146102c857806370a08231146102e757600080fd5b806301ffc9a71461016b57806306fdde03146101a0578063081812fc146101c2578063095ea7b3146101fa5780630f08efe01461021c57806323b872dd1461023e575b600080fd5b34801561017757600080fd5b5061018b6101863660046122f8565b61047d565b60405190151581526020015b60405180910390f35b3480156101ac57600080fd5b506101b56104a8565b60405161019791906124e5565b3480156101ce57600080fd5b506101e26101dd366004612386565b61053a565b6040516001600160a01b039091168152602001610197565b34801561020657600080fd5b5061021a6102153660046122cf565b610561565b005b34801561022857600080fd5b5061023161067c565b6040516101979190612497565b34801561024a57600080fd5b5061021a6102593660046121e1565b610810565b34801561026a57600080fd5b5061021a6102793660046121e1565b610841565b34801561028a57600080fd5b5061023161085c565b34801561029f57600080fd5b50610231610a2e565b3480156102b457600080fd5b506101e26102c3366004612386565b610c6a565b3480156102d457600080fd5b50600a545b604051908152602001610197565b3480156102f357600080fd5b506102d9610302366004612195565b610cca565b6102d9610315366004612330565b610d50565b34801561032657600080fd5b5061033a610335366004612386565b610d92565b60405161019791906125dc565b34801561035357600080fd5b506101b5610e60565b61021a61036a366004612386565b610e6f565b34801561037b57600080fd5b5061021a61038a366004612295565b610fd3565b34801561039b57600080fd5b5061021a6103aa36600461221c565b610fe2565b61021a6103bd366004612386565b611014565b3480156103ce57600080fd5b506101b56103dd366004612386565b61107f565b3480156103ee57600080fd5b5061033a611190565b34801561040357600080fd5b50610231611207565b61021a61041a36600461239e565b61134e565b34801561042b57600080fd5b5061018b61043a3660046121af565b6001600160a01b03918216600090815260056020908152604080832093909416825291909152205460ff1690565b34801561047457600080fd5b506102d9611482565b60006001600160e01b03198216632483248360e11b14806104a257506104a282611492565b92915050565b6060600080546104b790612645565b80601f01602080910402602001604051908101604052809291908181526020018280546104e390612645565b80156105305780601f1061050557610100808354040283529160200191610530565b820191906000526020600020905b81548152906001019060200180831161051357829003601f168201915b5050505050905090565b6000610545826114e2565b506000908152600460205260409020546001600160a01b031690565b600061056c82610c6a565b9050806001600160a01b0316836001600160a01b031614156105df5760405162461bcd60e51b815260206004820152602160248201527f4552433732313a20617070726f76616c20746f2063757272656e74206f776e656044820152603960f91b60648201526084015b60405180910390fd5b336001600160a01b03821614806105fb57506105fb813361043a565b61066d5760405162461bcd60e51b815260206004820152603d60248201527f4552433732313a20617070726f76652063616c6c6572206973206e6f7420746f60448201527f6b656e206f776e6572206f7220617070726f76656420666f7220616c6c00000060648201526084016105d6565b6106778383611544565b505050565b6060600061068960075490565b9050600061069660085490565b6007546106a39190612602565b90506000808267ffffffffffffffff8111156106cf57634e487b7160e01b600052604160045260246000fd5b60405190808252806020026020018201604052801561070857816020015b6106f561203c565b8152602001906001900390816106ed5790505b50905060005b848110156108075730600b60006107268460016125ea565b81526020810191909152604001600020600101546001600160a01b031614156107f55760006107568260016125ea565b6000818152600b6020908152604091829020825160a0810184528154815260018201546001600160a01b039081169382019390935260028201549092169282019290925260038201546060820152600482015460ff1615156080820152855192935090918590879081106107da57634e487b7160e01b600052603260045260246000fd5b60209081029190910101526107f06001866125ea565b945050505b806107ff81612680565b91505061070e565b50949350505050565b61081a33826115b2565b6108365760405162461bcd60e51b81526004016105d6906124f8565b610677838383611630565b61067783838360405180602001604052806000815250610fe2565b6060600061086960075490565b905060008060005b838110156108cc5733600b60006108898460016125ea565b81526020810191909152604001600020600201546001600160a01b031614156108ba576108b76001846125ea565b92505b806108c481612680565b915050610871565b5060008267ffffffffffffffff8111156108f657634e487b7160e01b600052604160045260246000fd5b60405190808252806020026020018201604052801561092f57816020015b61091c61203c565b8152602001906001900390816109145790505b50905060005b848110156108075733600b600061094d8460016125ea565b81526020810191909152604001600020600201546001600160a01b03161415610a1c57600061097d8260016125ea565b6000818152600b6020908152604091829020825160a0810184528154815260018201546001600160a01b039081169382019390935260028201549092169282019290925260038201546060820152600482015460ff161515608082015285519293509091859087908110610a0157634e487b7160e01b600052603260045260246000fd5b6020908102919091010152610a176001866125ea565b945050505b80610a2681612680565b915050610935565b60606000610a3b60075490565b905060008060005b83811015610ad35733600b6000610a5b8460016125ea565b81526020810191909152604001600020600101546001600160a01b03161480610aae575033600b6000610a8f8460016125ea565b81526020810191909152604001600020600201546001600160a01b0316145b15610ac157610abe6001846125ea565b92505b80610acb81612680565b915050610a43565b5060008267ffffffffffffffff811115610afd57634e487b7160e01b600052604160045260246000fd5b604051908082528060200260200182016040528015610b3657816020015b610b2361203c565b815260200190600190039081610b1b5790505b50905060005b848110156108075733600b6000610b548460016125ea565b81526020810191909152604001600020600101546001600160a01b03161480610ba7575033600b6000610b888460016125ea565b81526020810191909152604001600020600201546001600160a01b0316145b15610c58576000610bb98260016125ea565b6000818152600b6020908152604091829020825160a0810184528154815260018201546001600160a01b039081169382019390935260028201549092169282019290925260038201546060820152600482015460ff161515608082015285519293509091859087908110610c3d57634e487b7160e01b600052603260045260246000fd5b6020908102919091010152610c536001866125ea565b945050505b80610c6281612680565b915050610b3c565b6000818152600260205260408120546001600160a01b0316806104a25760405162461bcd60e51b8152602060048201526018602482015277115490cdcc8c4e881a5b9d985b1a59081d1bdad95b88125160421b60448201526064016105d6565b60006001600160a01b038216610d345760405162461bcd60e51b815260206004820152602960248201527f4552433732313a2061646472657373207a65726f206973206e6f7420612076616044820152683634b21037bbb732b960b91b60648201526084016105d6565b506001600160a01b031660009081526003602052604090205490565b6000610d60600780546001019055565b6000610d6b60075490565b9050610d773382611794565b610d8181856117ae565b610d8b8184611880565b9392505050565b610d9a61203c565b6000828152600260205260409020546001600160a01b0316610dfe5760405162461bcd60e51b815260206004820152601760248201527f546f6b656e20696420646f6573206e6f7420657869737400000000000000000060448201526064016105d6565b506000908152600b6020908152604091829020825160a0810184528154815260018201546001600160a01b03908116938201939093526002820154909216928201929092526003820154606082015260049091015460ff161515608082015290565b6060600180546104b790612645565b6000818152600b6020526040902060038101546002909101546001600160a01b0316348214610f08576040805162461bcd60e51b81526020600482015260248101919091527f506c65617365207375626d6974207468652061736b696e67207072696365206960448201527f6e206f7264657220746f20636f6d706c6574652074686520707572636861736560648201526084016105d6565b6000838152600b6020526040902060048101805460ff1916600117905560020180546001600160a01b03191633179055610f46600880546001019055565b610f51303385611630565b610f5b3084610561565b600954600a546040516001600160a01b039092169181156108fc0291906000818181858888f19350505050158015610f97573d6000803e3d6000fd5b506040516001600160a01b038216903480156108fc02916000818181858888f19350505050158015610fcd573d6000803e3d6000fd5b50505050565b610fde338383611a22565b5050565b610fec33836115b2565b6110085760405162461bcd60e51b81526004016105d6906124f8565b610fcd84848484611af1565b6009546001600160a01b0316331461107a5760405162461bcd60e51b815260206004820152602360248201527f4f6e6c79206f776e65722063616e20757064617465206c697374696e6720707260448201526269636560e81b60648201526084016105d6565b600a55565b606061108a826114e2565b600082815260066020526040812080546110a390612645565b80601f01602080910402602001604051908101604052809291908181526020018280546110cf90612645565b801561111c5780601f106110f15761010080835404028352916020019161111c565b820191906000526020600020905b8154815290600101906020018083116110ff57829003601f168201915b50505050509050600061113a60408051602081019091526000815290565b905080516000141561114d575092915050565b81511561117f57808260405160200161116792919061242b565b60405160208183030381529060405292505050919050565b61118884611b24565b949350505050565b61119861203c565b60006111a360075490565b6000908152600b6020908152604091829020825160a0810184528154815260018201546001600160a01b03908116938201939093526002820154909216928201929092526003820154606082015260049091015460ff161515608082015292915050565b6060600061121460075490565b905060008167ffffffffffffffff81111561123f57634e487b7160e01b600052604160045260246000fd5b60405190808252806020026020018201604052801561127857816020015b61126561203c565b81526020019060019003908161125d5790505b5090506000805b838110156113455760006112948260016125ea565b6000818152600b6020908152604091829020825160a0810184528154815260018201546001600160a01b039081169382019390935260028201549092169282019290925260038201546060820152600482015460ff16151560808201528651929350909186908690811061131857634e487b7160e01b600052603260045260246000fd5b602090810291909101015261132e6001856125ea565b93505050808061133d90612680565b91505061127f565b50909392505050565b6000828152600b60205260409020600101546001600160a01b031633146113ca5760405162461bcd60e51b815260206004820152602a60248201527f4f6e6c79206974656d206f776e65722063616e20706572666f726d20746869736044820152691037b832b930ba34b7b760b11b60648201526084016105d6565b600a5434146114275760405162461bcd60e51b8152602060048201526024808201527f5072696365206d75737420626520657175616c20746f206c697374696e6720706044820152637269636560e01b60648201526084016105d6565b6000828152600b6020526040902060048101805460ff19169055600381018290556002810180546001600160a01b0319908116331790915560019091018054909116301790556114776008611b97565b610fde333084611630565b600061148d60075490565b905090565b60006001600160e01b031982166380ac58cd60e01b14806114c357506001600160e01b03198216635b5e139f60e01b145b806104a257506301ffc9a760e01b6001600160e01b03198316146104a2565b6000818152600260205260409020546001600160a01b03166115415760405162461bcd60e51b8152602060048201526018602482015277115490cdcc8c4e881a5b9d985b1a59081d1bdad95b88125160421b60448201526064016105d6565b50565b600081815260046020526040902080546001600160a01b0319166001600160a01b038416908117909155819061157982610c6a565b6001600160a01b03167f8c5be1e5ebec7d5bd14f71427d1e84f3dd0314c0f7b2291e5b200ac8c7c3b92560405160405180910390a45050565b6000806115be83610c6a565b9050806001600160a01b0316846001600160a01b0316148061160557506001600160a01b0380821660009081526005602090815260408083209388168352929052205460ff165b806111885750836001600160a01b031661161e8461053a565b6001600160a01b031614949350505050565b826001600160a01b031661164382610c6a565b6001600160a01b0316146116695760405162461bcd60e51b81526004016105d690612597565b6001600160a01b0382166116cb5760405162461bcd60e51b8152602060048201526024808201527f4552433732313a207472616e7366657220746f20746865207a65726f206164646044820152637265737360e01b60648201526084016105d6565b826001600160a01b03166116de82610c6a565b6001600160a01b0316146117045760405162461bcd60e51b81526004016105d690612597565b600081815260046020908152604080832080546001600160a01b03199081169091556001600160a01b0387811680865260038552838620805460001901905590871680865283862080546001019055868652600290945282852080549092168417909155905184937fddf252ad1be2c89b69c2b068fc378daa952ba7f163c4a11628f55a4df523b3ef91a4505050565b610fde828260405180602001604052806000815250611bee565b6000828152600260205260409020546001600160a01b03166118295760405162461bcd60e51b815260206004820152602e60248201527f45524337323155524953746f726167653a2055524920736574206f66206e6f6e60448201526d32bc34b9ba32b73a103a37b5b2b760911b60648201526084016105d6565b600082815260066020908152604090912082516118489284019061206a565b506040518281527ff8e1a15aba9398e019f0b49df1a4fde98ee17ae345cb5f6b5e2c27f5033e8ce79060200160405180910390a15050565b600a5434146118dd5760405162461bcd60e51b815260206004820152602360248201527f486f706566756c6c792073656e64696e672074686520636f727265637420707260448201526269636560e81b60648201526084016105d6565b600081116119385760405162461bcd60e51b815260206004820152602260248201527f4d616b652073757265207468652070726963652069736e2774206e6567617469604482015261766560f01b60648201526084016105d6565b6040805160a081018252838152306020808301828152338486018181526060860188815260016080880181815260008c8152600b9097529890952096518755925193860180546001600160a01b039586166001600160a01b03199182161790915590516002870180549190951691161790925551600384015592516004909201805492151560ff19909316929092179091556119d5919084611630565b604080513081523360208201529081018290526001606082015282907f9339409317fd01fabff48b703019016f49159bacc801ae872d2ca637d226e4c09060800160405180910390a25050565b816001600160a01b0316836001600160a01b03161415611a845760405162461bcd60e51b815260206004820152601960248201527f4552433732313a20617070726f766520746f2063616c6c65720000000000000060448201526064016105d6565b6001600160a01b03838116600081815260056020908152604080832094871680845294825291829020805460ff191686151590811790915591519182527f17307eab39ab6107e8899845ad3d59bd9653f200f220920489ca2b5937696c31910160405180910390a3505050565b611afc848484611630565b611b0884848484611c21565b610fcd5760405162461bcd60e51b81526004016105d690612545565b6060611b2f826114e2565b6000611b4660408051602081019091526000815290565b90506000815111611b665760405180602001604052806000815250610d8b565b80611b7084611d2e565b604051602001611b8192919061242b565b6040516020818303038152906040529392505050565b805480611be65760405162461bcd60e51b815260206004820152601b60248201527f436f756e7465723a2064656372656d656e74206f766572666c6f77000000000060448201526064016105d6565b600019019055565b611bf88383611dd9565b611c056000848484611c21565b6106775760405162461bcd60e51b81526004016105d690612545565b60006001600160a01b0384163b15611d2357604051630a85bd0160e11b81526001600160a01b0385169063150b7a0290611c6590339089908890889060040161245a565b602060405180830381600087803b158015611c7f57600080fd5b505af1925050508015611caf575060408051601f3d908101601f19168201909252611cac91810190612314565b60015b611d09573d808015611cdd576040519150601f19603f3d011682016040523d82523d6000602084013e611ce2565b606091505b508051611d015760405162461bcd60e51b81526004016105d690612545565b805181602001fd5b6001600160e01b031916630a85bd0160e11b149050611188565b506001949350505050565b60606000611d3b83611f64565b600101905060008167ffffffffffffffff811115611d6957634e487b7160e01b600052604160045260246000fd5b6040519080825280601f01601f191660200182016040528015611d93576020820181803683370190505b5090508181016020015b600019016f181899199a1a9b1b9c1cb0b131b232b360811b600a86061a8153600a8504945084611dcc57611dd1565b611d9d565b509392505050565b6001600160a01b038216611e2f5760405162461bcd60e51b815260206004820181905260248201527f4552433732313a206d696e7420746f20746865207a65726f206164647265737360448201526064016105d6565b6000818152600260205260409020546001600160a01b031615611e945760405162461bcd60e51b815260206004820152601c60248201527f4552433732313a20746f6b656e20616c7265616479206d696e7465640000000060448201526064016105d6565b6000818152600260205260409020546001600160a01b031615611ef95760405162461bcd60e51b815260206004820152601c60248201527f4552433732313a20746f6b656e20616c7265616479206d696e7465640000000060448201526064016105d6565b6001600160a01b038216600081815260036020908152604080832080546001019055848352600290915280822080546001600160a01b0319168417905551839291907fddf252ad1be2c89b69c2b068fc378daa952ba7f163c4a11628f55a4df523b3ef908290a45050565b60008072184f03e93ff9f4daa797ed6e38ed64bf6a1f0160401b8310611fa35772184f03e93ff9f4daa797ed6e38ed64bf6a1f0160401b830492506040015b6d04ee2d6d415b85acef81000000008310611fcf576d04ee2d6d415b85acef8100000000830492506020015b662386f26fc100008310611fed57662386f26fc10000830492506010015b6305f5e1008310612005576305f5e100830492506008015b612710831061201957612710830492506004015b6064831061202b576064830492506002015b600a83106104a25760010192915050565b6040805160a08101825260008082526020820181905291810182905260608101829052608081019190915290565b82805461207690612645565b90600052602060002090601f01602090048101928261209857600085556120de565b82601f106120b157805160ff19168380011785556120de565b828001600101855582156120de579182015b828111156120de5782518255916020019190600101906120c3565b506120ea9291506120ee565b5090565b5b808211156120ea57600081556001016120ef565b600067ffffffffffffffff8084111561211e5761211e6126b1565b604051601f8501601f19908116603f01168101908282118183101715612146576121466126b1565b8160405280935085815286868601111561215f57600080fd5b858560208301376000602087830101525050509392505050565b80356001600160a01b038116811461219057600080fd5b919050565b6000602082840312156121a6578081fd5b610d8b82612179565b600080604083850312156121c1578081fd5b6121ca83612179565b91506121d860208401612179565b90509250929050565b6000806000606084860312156121f5578081fd5b6121fe84612179565b925061220c60208501612179565b9150604084013590509250925092565b60008060008060808587031215612231578081fd5b61223a85612179565b935061224860208601612179565b925060408501359150606085013567ffffffffffffffff81111561226a578182fd5b8501601f8101871361227a578182fd5b61228987823560208401612103565b91505092959194509250565b600080604083850312156122a7578182fd5b6122b083612179565b9150602083013580151581146122c4578182fd5b809150509250929050565b600080604083850312156122e1578182fd5b6122ea83612179565b946020939093013593505050565b600060208284031215612309578081fd5b8135610d8b816126c7565b600060208284031215612325578081fd5b8151610d8b816126c7565b60008060408385031215612342578182fd5b823567ffffffffffffffff811115612358578283fd5b8301601f81018513612368578283fd5b61237785823560208401612103565b95602094909401359450505050565b600060208284031215612397578081fd5b5035919050565b600080604083850312156123b0578182fd5b50508035926020909101359150565b600081518084526123d7816020860160208601612619565b601f01601f19169290920160200192915050565b805182526020808201516001600160a01b039081169184019190915260408083015190911690830152606080820151908301526080908101511515910152565b6000835161243d818460208801612619565b835190830190612451818360208801612619565b01949350505050565b6001600160a01b038581168252841660208201526040810183905260806060820181905260009061248d908301846123bf565b9695505050505050565b6020808252825182820181905260009190848201906040850190845b818110156124d9576124c68385516123eb565b9284019260a092909201916001016124b3565b50909695505050505050565b602081526000610d8b60208301846123bf565b6020808252602d908201527f4552433732313a2063616c6c6572206973206e6f7420746f6b656e206f776e6560408201526c1c881bdc88185c1c1c9bdd9959609a1b606082015260800190565b60208082526032908201527f4552433732313a207472616e7366657220746f206e6f6e20455243373231526560408201527131b2b4bb32b91034b6b83632b6b2b73a32b960711b606082015260800190565b60208082526025908201527f4552433732313a207472616e736665722066726f6d20696e636f72726563742060408201526437bbb732b960d91b606082015260800190565b60a081016104a282846123eb565b600082198211156125fd576125fd61269b565b500190565b6000828210156126145761261461269b565b500390565b60005b8381101561263457818101518382015260200161261c565b83811115610fcd5750506000910152565b600181811c9082168061265957607f821691505b6020821081141561267a57634e487b7160e01b600052602260045260246000fd5b50919050565b60006000198214156126945761269461269b565b5060010190565b634e487b7160e01b600052601160045260246000fd5b634e487b7160e01b600052604160045260246000fd5b6001600160e01b03198116811461154157600080fdfea2646970667358221220679bebae9b50ee65cafb33f5e86c1703561e54233c4cc2d28a87a6ced1bf121d64736f6c63430008040033",
  "linkReferences": {},
  "deployedLinkReferences": {}
}